:100000000C942A000C943F000C943F000C943F0089
:100010000C943F000C943F000C943F000C943F0064
:100020000C943F000C943F000C943F000C943F0054
:100030000C943F000C943F000C943F000C943F0044
:100040000C943F000C943F000C943F000C943F0034
:100050000C943F0011241FBECFE5D8E0DEBFCDBF1A
:1000600010E0A0E6B0E0E2EFF2E202C005900D92EF
:10007000A03BB107D9F70E944C0F0C9477110C9458
:100080000000EF92FF920F931F937B018C0120E001
:1000900030E040E05FE40E94ED0388238CF0C8016B
:1000A000B70120E030E040E05FE40E94B9010E9427
:1000B0004D049B01AC01205030404040504806C0E8
:1000C000C801B7010E944D049B01AC01B901CA01EE
:1000D0001F910F91FF90EF900895A0E0B0E0E3E74B
:1000E000F0E00C944011DC012B01FA019C9192305C
:1000F00008F439C1EB018881823008F433C19430AF
:1001000069F4843009F02FC111969C91119789816F
:10011000981709F428C1AFE8B0E025C1843009F48C
:1001200021C18230A9F4923009F01DC19A01AD01BC
:1001300088E0EA010990AE01E90109929E0181502F
:10014000C1F7E201898111969C918923818308C1BD
:10015000923009F407C112962D903C901397EB0151
:100160008A819B811496AD90BD90CD90DC901797BD
:10017000EC80FD800E811F819101281B390BB90194
:1001800037FF04C066277727621B730B6032710547
:100190000CF061C0121613066CF537014801062EEB
:1001A00004C096948794779467940A94D2F721E0D8
:1001B00030E040E050E004C0220F331F441F551FC1
:1001C0006A95D2F721503040404050402E213F21C7
:1001D00040235123211531054105510521F021E02E
:1001E00030E040E050E079018A01E628F72808294C
:1001F00019293CC0232BD1F1260E371E35014601AB
:10020000062E04C096948794779467940A94D2F744
:1002100021E030E040E050E004C0220F331F441FD3
:10022000551F6A95D2F721503040404050402A2156
:100230003B214C215D21211531054105510521F05E
:1002400021E030E040E050E059016A01A628B728DB
:10025000C828D9280BC0821593052CF01C01AA24AC
:10026000BB24650103C0EE24FF24870111969C91F5
:10027000D20111968C91981709F445C0992339F051
:10028000A80197012A193B094C095D0906C0A6017E
:1002900095012E193F09400B510B57FD08C01182E3
:1002A0003382228224833583468357831DC081E0B5
:1002B00081833382228288279927DC01821B930B5A
:1002C000A40BB50B84839583A683B7830DC0220F3F
:1002D000331F441F551F24833583468357838281F0
:1002E000938101979383828324813581468157814D
:1002F000DA01C9010197A109B1098F5F9F4FAF4F83
:10030000BF4328F30BC0918333822282EA0CFB1C8B
:100310000C1D1D1DE482F5820683178383E0808314
:10032000248135814681578157FF1AC0C901AA2708
:1003300097FDA095BA2F81709070A070B0705695FF
:10034000479537952795822B932BA42BB52B848328
:100350009583A683B7838281938101969383828359
:10036000DF0101C0D201CD01CDB7DEB7E2E10C94CF
:100370005C11A0E2B0E0EFEBF1E00C944C1169836A
:100380007A838B839C832D833E834F835887E9E058
:10039000EE2EF12CEC0EFD1ECE010196B7010E944F
:1003A00076058E010F5E1F4FCE010596B8010E94A3
:1003B00076058A8991E089278A8BC701B801AE0149
:1003C000475E5F4F0E946D000E94A104A096E6E088
:1003D0000C946811A0E2B0E0E0EFF1E00C944C1155
:1003E00069837A838B839C832D833E834F835887D5
:1003F000F9E0EF2EF12CEC0EFD1ECE010196B701B7
:100400000E9476058E010F5E1F4FCE010596B80142
:100410000E947605C701B801AE01475E5F4F0E949A
:100420006D000E94A104A096E6E00C946811A0E281
:10043000B0E0EDE1F2E00C94401169837A838B83A4
:100440009C832D833E834F835887CE010196BE0146
:10045000675F7F4F0E947605CE010596BE016F5EF5
:100460007F4F0E9476059985923088F08989823085
:10047000C8F0943019F4823051F404C0843029F467
:10048000923081F48FE890E0C6C0923049F420E0C9
:100490009A858A89981321E02A87CE010996BBC0E4
:1004A000823049F420E09A858A89981321E02A8BCA
:1004B000CE014196B0C02D843E844F8458886D880B
:1004C0007E888F88988CEE24FF248701AA24BB2481
:1004D000650140E050E060E070E0E0E0F0E0C10184
:1004E00081709070892BE9F0E60CF71C081D191D2E
:1004F0009A01AB012A0D3B1D4C1D5D1D80E090E073
:10050000A0E0B0E0E614F7040805190520F481E046
:1005100090E0A0E0B0E0BA01A901480F591F6A1F9E
:100520007B1FAA0CBB1CCC1CDD1C97FE08C081E005
:1005300090E0A0E0B0E0A82AB92ACA2ADB2A3196C6
:10054000E032F10549F0660C771C881C991C569422
:10055000479437942794C3CFFA85EA892B893C893D
:100560008B859C85280F391F2E5F3F4F17C0CA010E
:1005700081709070892B61F016950795F794E79438
:1005800080E090E0A0E0B0E8E82AF92A0A2B1B2BD3
:1005900076956795579547952F5F3F4F77FDE7CF46
:1005A0000CC0440F551F661F771F17FD4160EE0CEE
:1005B000FF1C001F111F21503040403090E05907B0
:1005C00090E0690790E4790760F32B8F3C8FDB01A3
:1005D000CA018F779070A070B07080349105A1052A
:1005E000B10561F447FD0AC0E114F10401051105EC
:1005F00029F0405C5F4F6F4F7F4F40781A8EFE1797
:1006000011F081E08A8F4D8F5E8F6F8F78A383E02A
:10061000898FCE0149960E94A104A096E2E10C9434
:100620005C11A8E1B0E0E7E1F3E00C9448116983C4
:100630007A838B839C832D833E834F835887B9E0D5
:10064000EB2EF12CEC0EFD1ECE010196B7010E949F
:1006500076058E010F5E1F4FCE010596B8010E94F0
:1006600076052985223008F47EC03989323010F4AD
:10067000B8017CC08A859A8989278A87243011F03D
:10068000223031F4231709F06EC06FE870E06EC0BD
:10069000343039F41D861E861F86188A1C861B86F8
:1006A00004C0323021F484E08987B7015FC02B8514
:1006B0003C858B899C89281B390B3C872B87ED84D3
:1006C000FE840F851889AD88BE88CF88D88CEA143F
:1006D000FB040C051D0540F4EE0CFF1C001F111F50
:1006E000215030403C872B8720E030E040E050E054
:1006F00080E090E0A0E0B0E460E070E0EA14FB0489
:100700000C051D0540F0282B392B4A2B5B2BEA18D2
:10071000FB080C091D09B695A79597958795EE0CD2
:10072000FF1C001F111F6F5F7F4F6F31710531F785
:10073000DA01C9018F779070A070B0708034910594
:10074000A105B10561F427FD0AC0E114F10401051A
:10075000110529F0205C3F4F4F4F5F4F20782D87C8
:100760003E874F87588BBE01675F7F4FCB010E944A
:10077000A1046896EAE00C946411A8E1B0E0E3EC0F
:10078000F3E00C944C1169837A838B839C832D83D3
:100790003E834F83588789E0E82EF12CEC0EFD1E36
:1007A000CE010196B7010E9476058E010F5E1F4FA4
:1007B000CE010596B8010E9476058985823040F009
:1007C0008989823028F0C701B8010E94EE0501C076
:1007D0008FEF6896E6E00C946811A8E1B0E0E3EFD3
:1007E000F3E00C944C1169837A838B839C832D8373
:1007F0003E834F83588789E0E82EF12CEC0EFD1ED6
:10080000CE010196B7010E9476058E010F5E1F4F43
:10081000CE010596B8010E9476058985823040F0A8
:100820008989823028F0C701B8010E94EE0501C015
:100830008FEF6896E6E00C946811A8E1B0E0E3E27F
:10084000F4E00C944C1169837A838B839C832D8311
:100850003E834F83588789E0E82EF12CEC0EFD1E75
:10086000CE010196B7010E9476058E010F5E1F4FE3
:10087000CE010596B8010E9476058985823040F048
:100880008989823028F0C701B8010E94EE0501C0B5
:1008900081E06896E6E00C946811ACE0B0E0E3E536
:1008A000F4E00C94501169837A838B839C83CE018E
:1008B0000196BE016B5F7F4F0E9476058D8182306D
:1008C00061F1823050F1843021F48E81882351F11E
:1008D0002EC02F81388537FD20C06E812F31310524
:1008E0001CF06623F9F023C08EE190E0821B930B8D
:1008F00029853A854B855C8504C056954795379583
:1009000027958A95D2F76623B1F05095409530959A
:1009100021953F4F4F4F5F4F0EC020E030E040E049
:1009200050E009C02FEF3FEF4FEF5FE704C020E03A
:1009300030E040E050E8B901CA012C96E2E00C94A6
:100940006C11DF92EF92FF920F931F93FC01E480F2
:10095000F58006811781D1808081823048F480E063
:1009600090E0A0E1B0E0E82AF92A0A2B1B2BA5C0F1
:10097000843009F49FC0823021F4EE24FF248701E3
:1009800005C0E114F1040105110519F4E0E0F0E0FF
:1009900096C0628173819FEF623879070CF05BC06B
:1009A00022E83FEF261B370B2A3131052CF020E0DF
:1009B00030E040E050E02AC0B801A701022E04C098
:1009C00076956795579547950A94D2F781E090E020
:1009D000A0E0B0E004C0880F991FAA1FBB1F2A9592
:1009E000D2F70197A109B1098E219F21A023B1233C
:1009F0000097A105B10521F081E090E0A0E0B0E012
:100A00009A01AB01282B392B4A2B5B2BDA01C90148
:100A10008F779070A070B07080349105A105B105FA
:100A200039F427FF09C0205C3F4F4F4F5F4F04C090
:100A3000215C3F4F4F4F5F4FE0E0F0E02030A0E0FF
:100A40003A07A0E04A07A0E45A0710F0E1E0F0E01E
:100A500079018A0127C06038710564F5FB01E1580E
:100A6000FF4FD801C7018F779070A070B0708034AD
:100A70009105A105B10539F4E7FE0DC080E490E0D1
:100A8000A0E0B0E004C08FE390E0A0E0B0E0E80EAA
:100A9000F91E0A1F1B1F17FF05C016950795F7942F
:100AA000E794319687E016950795F794E7948A9531
:100AB000D1F705C0EE24FF248701EFEFF0E06E2FA1
:100AC000679566276795902F9F77D794DD24D794F5
:100AD0008E2F8695492F462B582F5D29B701CA01C5
:100AE0001F910F91FF90EF90DF900895FC01DB01C3
:100AF000408151812281622F6F7770E0221F22276F
:100B0000221F9381892F880F822B282F30E0991F75
:100B10009927991F11969C93119721153105A9F5D5
:100B2000411551056105710511F482E037C082E875
:100B30009FEF13969C938E9312979A01AB0167E0F7
:100B4000220F331F441F551F6A95D1F783E08C9302
:100B50000DC0220F331F441F551F12968D919C917B
:100B60001397019713969C938E931297203080E0F1
:100B7000380780E0480780E4580758F314962D930F
:100B80003D934D935C93179708952F3F310579F46A
:100B9000411551056105710519F484E08C930895A0
:100BA00064FF03C081E08C9312C01C9210C02F57C9
:100BB000304013963C932E93129783E08C9387E0FA
:100BC000440F551F661F771F8A95D1F770641496DE
:100BD0004D935D936D937C93179708951F93DC015C
:100BE000FB019C91923008F447C08081823008F468
:100BF00043C0943051F411961C91843099F5818151
:100C0000682F70E0611B71093FC0843021F0923081
:100C100031F48230B9F18181882389F12DC0119698
:100C20001C9111978230F1F081811817D9F4129636
:100C30002D913C911397828193818217930794F0B1
:100C400028173907BCF014968D919D910D90BC9199
:100C5000A02D2481358146815781281739074A07FD
:100C60005B0718F4112341F00AC082179307A40709
:100C7000B50740F4112319F061E070E005C06FEF93
:100C80007FEF02C060E070E0CB011F910895DF9319
:100C9000CF9300D000D000D0CDB7DEB789836A8370
:100CA0004B838981843008F0E4C08A81883008F061
:100CB000DDC08B81882321F08B81813009F0D3C086
:100CC0008981282F30E03E832D838D819E81813064
:100CD000910509F443C02D813E81223031052CF469
:100CE0008D819E81009771F0BCC02D813E812230A4
:100CF000310509F45FC08D819E818330910509F42F
:100D000085C0AFC08B818130A1F4AAE3B0E0EAE3F3
:100D1000F0E08081482F8A81282F30E081E090E048
:100D2000022E02C0880F991F0A94E2F7842B8C933D
:100D300098C0AAE3B0E0EAE3F0E08081482F8A811E
:100D4000282F30E081E090E0022E02C0880F991F2A
:100D50000A94E2F7809584238C9383C08B81813041
:100D6000A1F4A7E3B0E0E7E3F0E08081482F8A81B7
:100D7000282F30E081E090E0022E02C0880F991FFA
:100D80000A94E2F7842B8C936CC0A7E3B0E0E7E30E
:100D9000F0E08081482F8A81282F30E081E090E0C8
:100DA000022E02C0880F991F0A94E2F780958423CF
:100DB0008C9357C08B818130A1F4A4E3B0E0E4E3CD
:100DC000F0E08081482F8A81282F30E081E090E098
:100DD000022E02C0880F991F0A94E2F7842B8C938D
:100DE00040C0A4E3B0E0E4E3F0E08081482F8A81D2
:100DF000282F30E081E090E0022E02C0880F991F7A
:100E00000A94E2F7809584238C932BC08B818130E8
:100E1000A1F4A1E3B0E0E1E3F0E08081482F8A8112
:100E2000282F30E081E090E0022E02C0880F991F49
:100E30000A94E2F7842B8C9314C0A1E3B0E0E1E3C1
:100E4000F0E08081482F8A81282F30E081E090E017
:100E5000022E02C0880F991F0A94E2F7809584231E
:100E60008C931C8208C093E09C8305C022E02C83F5
:100E700002C031E03C838C8126960FB6F894DEBF29
:100E80000FBECDBFCF91DF910895DF93CF9300D0F8
:100E900000D000D0CDB7DEB789836A834B838981C8
:100EA000843008F0E4C08A81883008F0DDC08B818E
:100EB000882321F08B81813009F0D3C08981282FCC
:100EC00030E03E832D838D819E818130910509F430
:100ED00043C02D813E81223031052CF48D819E81CD
:100EE000009771F0BCC02D813E812230310509F49C
:100EF0005FC08D819E818330910509F485C0AFC0AC
:100F00008B818130A1F4ABE3B0E0EBE3F0E08081D2
:100F1000482F8A81282F30E081E090E0022E02C025
:100F2000880F991F0A94E2F7842B8C9398C0ABE347
:100F3000B0E0EBE3F0E08081482F8A81282F30E099
:100F400081E090E0022E02C0880F991F0A94E2F718
:100F5000809584238C9383C08B818130A1F4A8E396
:100F6000B0E0E8E3F0E08081482F8A81282F30E06C
:100F700081E090E0022E02C0880F991F0A94E2F7E8
:100F8000842B8C936CC0A8E3B0E0E8E3F0E08081B0
:100F9000482F8A81282F30E081E090E0022E02C0A5
:100FA000880F991F0A94E2F7809584238C9357C089
:100FB0008B818130A1F4A5E3B0E0E5E3F0E080812E
:100FC000482F8A81282F30E081E090E0022E02C075
:100FD000880F991F0A94E2F7842B8C9340C0A5E3F5
:100FE000B0E0E5E3F0E08081482F8A81282F30E0EF
:100FF00081E090E0022E02C0880F991F0A94E2F768
:10100000809584238C932BC08B818130A1F4A2E343
:10101000B0E0E2E3F0E08081482F8A81282F30E0C1
:1010200081E090E0022E02C0880F991F0A94E2F737
:10103000842B8C9314C0A2E3B0E0E2E3F0E0808163
:10104000482F8A81282F30E081E090E0022E02C0F4
:10105000880F991F0A94E2F7809584238C931C8251
:1010600008C094E09C8305C022E02C8302C031E0DC
:101070003C838C8126960FB6F894DEBF0FBECDBFA1
:10108000CF91DF910895DF93CF9300D000D00F92DE
:10109000CDB7DEB789836A8389818430A0F58981E1
:1010A000282F30E03D832C838C819D8181309105F8
:1010B000D1F02C813D81223031052CF48C819D8131
:1010C000009761F01EC02C813D812230310581F0F6
:1010D0008C819D818330910581F013C0EAE3F0E0BB
:1010E0008A8180830EC0E7E3F0E08A81808309C0B3
:1010F000E4E3F0E08A81808304C0E1E3F0E08A81E8
:1011000080831B8202C091E09B838B810F900F90A4
:101110000F900F900F90CF91DF910895DF93CF93B1
:1011200000D000D00F92CDB7DEB789836A83898162
:101130008430A0F58981282F30E03D832C838C8179
:101140009D8181309105D1F02C813D812230310586
:101150002CF48C819D81009761F01EC02C813D8113
:101160002230310581F08C819D818330910581F0A1
:1011700013C0EBE3F0E08A8180830EC0E8E3F0E087
:101180008A81808309C0E5E3F0E08A81808304C01E
:10119000E2E3F0E08A8180831B8202C091E09B83BE
:1011A0008B810F900F900F900F900F90CF91DF9148
:1011B0000895DF93CF93CDB7DEB727970FB6F89496
:1011C000DEBF0FBECDBF89836A835C834B83898179
:1011D000843008F079C08A81883008F072C0898133
:1011E000282F30E03F832E834E815F8141305105AF
:1011F00059F18E819F818230910534F42E813F8197
:101200002115310569F05BC04E815F814230510587
:1012100079F18E819F818330910509F43DC04FC0E3
:10122000E9E3F0E08081282F30E08A81882F90E088
:10123000A90102C0559547958A95E2F7CA018170C8
:10124000EB81FC8180833BC0E9E3F0E08081282FC3
:1012500030E08A81882F90E0A90102C0559547951A
:101260008A95E2F7CA018170EB81FC81808327C0F7
:10127000E9E3F0E08081282F30E08A81882F90E038
:10128000A90102C0559547958A95E2F7CA01817078
:10129000EB81FC81808313C0E9E3F0E08081282F9B
:1012A00030E08A81882F90E0A90102C055954795CA
:1012B0008A95E2F7CA018170EB81FC8180831D82EF
:1012C00005C052E05D8302C081E08D838D81279649
:1012D0000FB6F894DEBF0FBECDBFCF91DF9108955A
:1012E000DF93CF9300D0CDB7DEB71A820FC08A81CB
:1012F000882F90E0FC01E556FF4F908180E0692F38
:1013000041E00E9447068A818F5F8A838A81843008
:1013100070F319821BC08981882F90E0FC01E95687
:10132000FF4F908180E0692F40E00E94470689814D
:10133000882F90E0FC01E956FF4F908180E0692FF3
:1013400041E00E94450789818F5F898389818430CC
:1013500010F30F900F90CF91DF910895DF93CF930B
:1013600000D000D00F92CDB7DEB781E089831B8219
:101370005EC08B81882F90E0FC01E556FF4F908185
:1013800080E0692F40E00E9445071A823DC08A81B3
:10139000882F90E0FC01E956FF4F90819E012C5F61
:1013A0003F4F80E0692FA9010E94D9088C818823D2
:1013B00041F58A81482F50E08B81282F30E0CA0107
:1013C000880F991F880F991F820F931FFC01E15608
:1013D000FF4F808189830FC08A81882F90E0FC01B4
:1013E000E956FF4F90819E012C5F3F4F80E0692FAF
:1013F000A9010E94D9088C81882371F389818D838A
:101400001CC08A818F5F8A838A81843008F4BFCFB1
:101410008B81882F90E0FC01E556FF4F908180E0A2
:10142000692F41E00E9445078B818F5F8B838B8101
:10143000843008F49ECF89818D838D810F900F9029
:101440000F900F900F90CF91DF9108950F931F93FE
:10145000DF93CF93CDB7DEB7CC54D0400FB6F8941E
:10146000DEBF0FBECDBF83E060E041E00E944706D3
:1014700083E061E041E00E94470683E062E041E0F2
:101480000E94470682E06FEF0E944308FE01E75B7F
:10149000FF4F80E090E0A0E2B2E480839183A283DA
:1014A000B3838E010B5B1F4FFE01E75BFF4F608133
:1014B00071818281938120E030E04AEF54E40E9400
:1014C0001702DC01CB01F80180839183A283B383EF
:1014D000FE01EB5BFF4F608171818281938120E08F
:1014E00030E040E85FE30E941D04882344F4FE01DD
:1014F000ED5BFF4F81E090E09183808364C0FE014B
:10150000EB5BFF4F608171818281938120E03FEF2F
:101510004FE757E40E94BD0318160CF043C0FE01CC
:10152000E75BFF4F608171818281938120E030E031
:1015300040E251E40E941702DC01CB018E010D5BF9
:101540001F4FBC01CD010E944100DC01CB01F8011D
:10155000918380831FC0FE01EF5BFF4F88EC90E01A
:1015600091838083FE01EF5BFF4F80819181019722
:10157000F1F7FE01EF5BFF4F91838083DE01AD5BEE
:10158000BF4FFE01ED5BFF4F808191810197119666
:101590009C938E93FE01ED5BFF4F808191810097BC
:1015A000D1F624C08E010D5B1F4FFE01EB5BFF4F98
:1015B00060817181828193810E944100DC01CB01B5
:1015C000F80191838083FE01ED5BFF4F8081918163
:1015D000FE01FF9691838083FE01FF9680819181B9
:1015E0000197F1F7FE01FF969183808388E30E94C3
:1015F000F90C80E090E0A8E4B2E48BAF9CAFADAF13
:10160000BEAF6BAD7CAD8DAD9EAD2BEA3AEA4AE242
:1016100050E40E941702DC01CB018FAB98AFA9AF59
:10162000BAAF6FA978AD89AD9AAD20E030E040E85F
:101630005FE30E941D0488231CF481E08EAB91C0FF
:101640006FA978AD89AD9AAD20E030E04FE753E463
:101650000E94BD0318160CF07BC06BAD7CAD8DAD48
:101660009EAD20E030E04AE754E40E941103DC0123
:10167000CB018AAB9BABACABBDAB6AA97BA98CA9F8
:101680009DA920E030E04AEF54E40E941702DC01FB
:10169000CB018EA79FA7A8ABB9AB6EA57FA588A9E4
:1016A00099A920E030E040E85FE30E941D04882310
:1016B0002CF481E090E09DA78CA73FC06EA57FA58C
:1016C00088A999A920E03FEF4FE757E40E94BD03A6
:1016D00018164CF56AA97BA98CA99DA920E030E0D9
:1016E00040E251E40E941702DC01CB01BC01CD01B4
:1016F0000E944100DC01CB019DA78CA70FC088ECA4
:1017000090E09BA78AA78AA59BA50197F1F79BA7C5
:101710008AA78CA59DA501979DA78CA78CA59DA5A3
:10172000009769F724C06EA57FA588A999A90E9492
:101730004100DC01CB019DA78CA78CA59DA599A795
:1017400088A788A599A50197F1F799A788A70FC041
:101750006FA978AD89AD9AAD0E944100DC01CB0143
:101760008EAB8EA98FA38FA18A95F1F78FA38CE002
:101770000E94F90C80E090E0A8E4B2E48BA39CA363
:10178000ADA3BEA36BA17CA18DA19EA12BEA3AEAD9
:101790004AE250E40E941702DC01CB018F8F98A32C
:1017A000A9A3BAA36F8D78A189A19AA120E030E006
:1017B00040E85FE30E941D0488231CF481E08E8FC3
:1017C00091C06F8D78A189A19AA120E030E04FE708
:1017D00053E40E94BD0318160CF07BC06BA17CA1E2
:1017E0008DA19EA120E030E04AE754E40E9411035D
:1017F000DC01CB018A8F9B8FAC8FBD8F6A8D7B8D77
:101800008C8D9D8D20E030E04AEF54E40E94170259
:10181000DC01CB018E8B9F8BA88FB98F6E897F895E
:10182000888D998D20E030E040E85FE30E941D0440
:1018300088232CF481E090E09D8B8C8B3FC06E89D7
:101840007F89888D998D20E03FEF4FE757E40E9414
:10185000BD0318164CF56A8D7B8D8C8D9D8D20E017
:1018600030E040E251E40E941702DC01CB01BC01F0
:10187000CD010E944100DC01CB019D8B8C8B0FC000
:1018800088EC90E09B8B8A8B8A899B890197F1F782
:101890009B8B8A8B8C899D8901979D8B8C8B8C89E6
:1018A0009D89009769F724C06E897F89888D998DFD
:1018B0000E944100DC01CB019D8B8C8B8C899D8922
:1018C000998B888B888999890197F1F7998B888BF7
:1018D0000FC06F8D78A189A19AA10E944100DC01FF
:1018E000CB018E8F8E8D8F878F858A95F1F78F87AD
:1018F00081E00E94F90C80E090E0A0E0B0E48B87EA
:101900009C87AD87BE876B857C858D859E8520E015
:1019100030E04AEF54E40E941702DC01CB018F83D0
:101920009887A987BA876F81788589859A8520E00D
:1019300030E040E85FE30E941D0488232CF481E03E
:1019400090E09E838D833FC06F81788589859A85DD
:1019500020E03FEF4FE757E40E94BD0318164CF517
:101960006B857C858D859E8520E030E040E251E4EA
:101970000E941702DC01CB01BC01CD010E94410095
:10198000DC01CB019E838D830FC088EC90E09C83AB
:101990008B838B819C810197F1F79C838B838D8155
:1019A0009E8101979E838D838D819E81009769F72B
:1019B00014C06F81788589859A850E944100DC0179
:1019C000CB019E838D838D819E819A8389838981BA
:1019D0009A810197F1F79A838983C45BDF4F0FB631
:1019E000F894DEBF0FBECDBFCF91DF911F910F9155
:1019F0000895DF93CF930F92CDB7DEB7898383E04D
:101A000060E040E00E94450789810E941D0D0F9013
:101A1000CF91DF910895DF93CF930F92CDB7DEB7CB
:101A2000898383E060E041E00E94450789810E944C
:101A30001D0D0F90CF91DF910895DF93CF93CDB718
:101A4000DEB72F970FB6F894DEBF0FBECDBF8F87DE
:101A500083E061E040E00E9445078F85982F9170F8
:101A600082E060E0492F0E9445078F858695982F78
:101A7000917082E061E0492F0E9445078F8586952D
:101A80008695982F917082E062E0492F0E94450769
:101A90008F85869586958695982F917082E063E074
:101AA000492F0E9445078F8582958F70982F9170DE
:101AB00082E064E0492F0E9445078F8582958695D4
:101AC0008770982F917082E065E0492F0E9445074A
:101AD0008F858295869586958370982F917082E088
:101AE00066E0492F0E9445078F85982F991F9927F7
:101AF000991F82E067E0492F0E94450783E062E07A
:101B000041E00E94450780E090E0A0E8BFE38B87BA
:101B10009C87AD87BE876B857C858D859E8520E003
:101B200030E04AEF54E40E941702DC01CB018F83BE
:101B30009887A987BA876F81788589859A8520E0FB
:101B400030E040E85FE30E941D0488232CF481E02C
:101B500090E09E838D833FC06F81788589859A85CB
:101B600020E03FEF4FE757E40E94BD0318164CF505
:101B70006B857C858D859E8520E030E040E251E4D8
:101B80000E941702DC01CB01BC01CD010E94410083
:101B9000DC01CB019E838D830FC088EC90E09C8399
:101BA0008B838B819C810197F1F79C838B838D8143
:101BB0009E8101979E838D838D819E81009769F719
:101BC00014C06F81788589859A850E944100DC0167
:101BD000CB019E838D838D819E819A8389838981A8
:101BE0009A810197F1F79A83898383E062E040E06C
:101BF0000E9445072F960FB6F894DEBF0FBECDBFEB
:101C0000CF91DF910895DF93CF9300D000D0CDB76F
:101C1000DEB79A8389836B834C838B816C810E94AE
:101C20003F0E21C08B81803139F48C81882321F4CF
:101C300080E061E00E943F0E8B81803139F48C811D
:101C4000813021F480E060E00E943F0EE981FA815A
:101C500080810E940B0D89819A8101969A838983E4
:101C60008B818F5F8B83E981FA8180818823D1F614
:101C70000F900F900F900F90CF91DF910895DF9309
:101C8000CF9300D00F92CDB7DEB78A836B838B8161
:101C9000882F90E0002496958795079496958795D0
:101CA0000794982F802D982F8A81890F89838981A5
:101CB0008068898389810E94F90C0F900F900F90A2
:101CC000CF91DF910895DF93CF93CDB7DEB76C97B7
:101CD0000FB6F894DEBF0FBECDBF6F8B788F898FA4
:101CE0009A8F4B8F2C8F19828F89988DA98DBA8DE1
:101CF0000097A105B105F1F58981282F30E0CE01CB
:101D00000396FC01E20FF31F80E3808389818F5FDC
:101D1000898330C08F89988DA98DBA8D2AE030E0F3
:101D200040E050E0BC01CD010E941E11DC01CB015E
:101D30008A838981282F30E08A81482F405DCE0137
:101D40000396FC01E20FF31F408389818F5F898333
:101D50008F89988DA98DBA8D2AE030E040E050E05F
:101D6000BC01CD010E941E11DA01C9018F8B988F31
:101D7000A98FBA8F8F89988DA98DBA8D0097A105EB
:101D8000B10541F68981282F30E0CE010396FC0190
:101D9000E20FF31F1082CE01039669810E94DF0ECD
:101DA000CE0103966B8D4C8D0E94030E6C960FB680
:101DB000F894DEBF0FBECDBFCF91DF910895DF93C2
:101DC000CF93CDB7DEB729970FB6F894DEBF0FBE1D
:101DD000CDBF98878F8369871E82898581508D83C7
:101DE00033C08E81282F30E08F819885FC01E20F6F
:101DF000F31F8081882F90E0A0E0B0E089839A8370
:101E0000AB83BC838E81282F30E08F819885DC01E5
:101E1000A20FB31F8D81282F30E08F819885FC01A0
:101E2000E20FF31F80818C938D81282F30E08F810A
:101E30009885FC01E20FF31F898180838E818F5F7B
:101E40008E838D8181508D839E818D81981748F27C
:101E500029960FB6F894DEBF0FBECDBFCF91DF91AC
:101E60000895DF93CF9300D0CDB7DEB78A838A8100
:101E70008064898389810E94F90C0F900F90CF9123
:101E8000DF910895DF93CF93CDB7DEB781E00E9455
:101E9000F90CCF91DF910895DF93CF93CDB7DEB7E3
:101EA000A0970FB6F894DEBF0FBECDBF0E94260AE2
:101EB0000E94700980E690E064E040E00E94030E1A
:101EC00088E690E063E041E00E94030E80E090E04D
:101ED000AAEFB4E48B879C87AD87BE876B857C8532
:101EE0008D859E8520E030E04AEF54E40E94170281
:101EF000DC01CB018F839887A987BA876F817885AA
:101F000089859A8520E030E040E85FE30E941D0467
:101F100088232CF481E090E09E838D833FC06F8105
:101F2000788589859A8520E03FEF4FE757E40E9446
:101F3000BD0318164CF56B857C858D859E8520E04C
:101F400030E040E251E40E941702DC01CB01BC0109
:101F5000CD010E944100DC01CB019E838D830FC027
:101F600088EC90E09C838B838B819C810197F1F7B7
:101F70009C838B838D819E8101979E838D838D8130
:101F80009E81009769F714C06F81788589859A854D
:101F90000E944100DC01CB019E838D838D819E8157
:101FA0009A83898389819A810197F1F79A8389833A
:101FB0000E94420F81E08E8F1D8E198E1A8E1B8E0D
:101FC0001C8E1D8A1E8A1F8A188E198A1A8A1B8ADD
:101FD0001C8A188A1F860E94AE098E8F8E8D8033D0
:101FE00008F44EC08E8D8A3308F04AC08E8D0E9450
:101FF0000B0D8D8D882311F5898D9A8DAB8DBC8D40
:102000002AE030E040E050E0BC01CD010E94FF102A
:102010009B01AC018E8D882F90E0C097AA2797FD79
:10202000A095BA2F820F931FA41FB51F898F9A8F77
:10203000AB8FBC8F88898F5F888BCDCF8D899E8930
:10204000AF89B88D2AE030E040E050E0BC01CD011E
:102050000E94FF109B01AC018E8D882F90E0C097ED
:10206000AA2797FDA095BA2F820F931FA41FB51F13
:102070008D8B9E8BAF8BB88F8F858F5F8F87ABCF0C
:102080008E8D8B3249F08E8D8D3231F08E8D8A326D
:1020900019F08E8D8F3231F48E8D0E940B0D8E8D46
:1020A0008D8F99CF8E8D8D3309F099C08E8D0E94C2
:1020B0000B0D8D8D282F30E038A32F8F8F8D98A199
:1020C0008B329105B1F02F8D38A12C32310534F4CB
:1020D0008F8D98A18A32910571F164C02F8D38A13E
:1020E0002D323105B9F08F8D98A18F329105B1F164
:1020F00059C0898D9A8DAB8DBC8D2D893E894F89B4
:10210000588D820F931FA41FB51F898B9A8BAB8BA1
:10211000BC8B51C0898D9A8DAB8DBC8D2D893E892C
:102120004F89588D821B930BA40BB50B898B9A8B0F
:10213000AB8BBC8B40C0898D9A8DAB8DBC8D2D89AE
:102140003E894F89588DBC01CD010E94FF10DC01F2
:10215000CB01898B9A8BAB8BBC8B2DC08D899E89D3
:10216000AF89B88D0097A105B10549F40E94420FCF
:1021700083E790E063E040E00E94030E2CCF898D5E
:102180009A8DAB8DBC8D2D893E894F89588DBC01B0
:10219000CD010E941E11DA01C901898B9A8BAB8B8C
:1021A000BC8B09C00E94420F8EE790E060E040E0E7
:1021B0000E94030E10CF89899A89AB89BC89BC0122
:1021C000CD0140E021E00E94630E198E1A8E1B8E15
:1021D0001C8E1D8A1E8A1F8A188E1D8EFCCE8E8D27
:1021E000833609F0F8CE0E94420F198E1A8E1B8E8C
:1021F0001C8E1D8A1E8A1F8A188E1D8EECCE629F31
:10220000D001739FF001829FE00DF11D649FE00DEE
:10221000F11D929FF00D839FF00D749FF00D659F4F
:10222000F00D9927729FB00DE11DF91F639FB00D4E
:10223000E11DF91FBD01CF0111240895A1E21A2E5D
:10224000AA1BBB1BFD010DC0AA1FBB1FEE1FFF1F5A
:10225000A217B307E407F50720F0A21BB30BE40BAA
:10226000F50B661F771F881F991F1A9469F76095F1
:102270007095809590959B01AC01BD01CF010895AB
:102280002F923F924F925F926F927F928F929F9286
:10229000AF92BF92CF92DF92EF92FF920F931F9374
:1022A000CF93DF93CDB7DEB7CA1BDB0B0FB6F89425
:1022B000DEBF0FBECDBF09942A88398848885F8465
:1022C0006E847D848C849B84AA84B984C884DF80D6
:1022D000EE80FD800C811B81AA81B981CE0FD11DBA
:1022E0000FB6F894DEBF0FBECDBFED010895F89490
:0222F000FFCF1E
:1022F20057656C636F6D650043616C63756C6174E7
:102302006F72004D617468204572726F7200496E7F
:1023120076616C6964204F70657261746F7200003F
:102322000000000000000000010203040506073758
:1023320038392F3435362A3132332D63303D2B0074
:00000001FF
